:020000040000FA
:0600000000008A01052842
:080008000900870183160313B0
:10001000870103308500D03081000E309F008312AD
:100020000313C1309F001F15A1012A20A001242025
:10003000200F1C2822082128200801072208031C61
:10004000D53987002A2017281F1908001E081F15F8
:10005000A000080007300905210603190800A106C1
:10006000851C362800308A004830392800308A0044
:100070004030210703188A0A3F20A20008008200AE
:100080000034123409341834243406342134003452
:100090000034213406342434183409341234003442
:0400A00000340034F4
:02400E00F23D81
:00000001FF
